:020000040800F2
:10000000A0040020A1010008371400082D120008E8
:1000100035140008D30200086D1900080000000024
:10002000000000000000000000000000591400085B
:10003000D502000800000000391400085915000816
:10004000BB010008BB010008BB010008BB010008A0
:10005000BB010008BB010008BB010008BB01000890
:10006000BB010008BB010008BB010008BB01000880
:10007000BB010008BB010008BB010008BB01000870
:10008000BB010008BB010008BB010008BB01000860
:10009000BB010008BB010008BB010008BB01000850
:1000A00009160008BB010008BB010008BB010008DD
:1000B000BB010008BB010008BB010008BB01000830
:1000C000BB010008BB010008BB010008BB01000820
:1000D000BB010008BB010008BB010008BB01000810
:1000E000BB010008BB010008BB010008BB01000800
:1000F000BB010008BB010008BB010008BB010008F0
:10010000BB010008BB010008BB010008BB010008DF
:10011000BB010008BB010008BB010008BB010008CF
:10012000BB010008BB010008BB010008BB010008BF
:10013000BB0100080000000000000000BB01000837
:10014000BB010008BB010008BB010008BB0100089F
:10015000BB010008BB010008BB010008BB0100088F
:10016000BB010008BB010008BB010008BB0100087F
:10017000BB010008BB0100080000000000000000F7
:10018000BB010008BB010008DFF810D000F07CF8CC
:1001900000480047AD190008AFF30080A00400201C
:1001A0000648804706480047FEE7FEE7FEE7FEE711
:1001B000FEE7FEE7FEE7FEE7FEE7FEE7ED150008D7
:1001C000890100082DE9F05F0546002092469B4614
:1001D00088460646814640241BE02846414647465D
:1001E000224600F041F853465A46C01A914110D3B6
:1001F00011461846224600F028F82D1A67EB010830
:100200004F4622460120002100F01FF817EB00099D
:100210004E41201EA4F10104DFDC484631462A4647
:100220004346BDE8F09FD2B201E000F8012B491E21
:10023000FBD270470022F6E710B513460A46044683
:100240001946FFF7F0FF204610BD202A04DB203AB4
:1002500000FA02F1002070479140C2F1200320FA19
:1002600003F3194390407047202A04DB203A21FA17
:1002700002F00021704721FA02F3D040C2F12002BF
:100280009140084319467047064C074D06E0E06868
:1002900040F0010394E8070098471034AC42F6D3CD
:1002A000FFF776FFDC190008FC19000810B500F014
:1002B000BEFF01F0C2F8BDE8104000F00DB810B567
:1002C00000F0BFFF01F0BAF8BDE8104000F006B83A
:1002D0007047FEE770477047FFF7FABF70470000AE
:1002E0002DE9F84F00224FF0010803254FF00F0EC3
:1002F0000B6808FA02F42340A3426ED14E68012E27
:1003000005D0022E03D0112E01D0122E12D18668F4
:100310004FEA420C05FA0CF7BE43CF6807FA0CF718
:10032000374387604668A6430C79C4F300149440B1
:1003300034434460C668570005FA07FC8C6826EA17
:100340000C06BC403443C4604C68022C01D0122C13
:1003500013D1D40800EB8404A346D4F820905407AA
:100360004FEAD46A0EFA0AF629EA06090E6906FA75
:100370000AF646EA0906CBF8206006680C7926EAF8
:100380000C0604F00304BC40344304604C68E400F1
:1003900065D5364C266846F480462660246822F0EF
:1003A000030604F480440094314C3444A446D4F849
:1003B00008489607370F0EFA07F6B4432D4EB042A1
:1003C00001D1002624E02C4EB04201D101261FE0CD
:1003D0002A4EB04202D102261AE040E0284EB04236
:1003E00001D1032614E0274EB04201D104260FE0CC
:1003F000254EB04201D105260AE0244EB04201D17B
:10040000062605E0224EB04201D1072600E008266C
:10041000BE402643CCF808681E4E34684F689C43A3
:10042000FF0300D51C4334601A4C241D26684F6816
:100430009E43BF0300D51E432660164E083634681F
:100440004F689C43FF0200D51C433460114E0C36AC
:1004500034684F689C43BF0200D51C433460521C73
:10046000102AFFF445AFBDE8F88F00004438024081
:100470000030014000000240000402400008024039
:10048000000C02400010024000140240001802401C
:10049000001C0240003C01400AB181617047090420
:1004A000FBE7000001488068704700000000002062
:1004B0000248816802781144816070470000002082
:1004C0000B4810B5016841F400710160016841F406
:1004D00080610160016841F480710160032000F0D7
:1004E0006FF8002000F006F800F024F8002010BD9E
:1004F000003C024070B50D4D04464FF47A712878E7
:10050000B1FBF0F00A490968B1FBF0F000F0E2FA43
:1005100048B9102C07D200222146501E00F030F8B6
:1005200000206C6070BD012070BD00000000002044
:100530000C0000200A4808B5016841F480410160C0
:10054000006800F4804000900548001F016841F0F9
:1005500080510160006800F08050009008BD0000EC
:1005600044380240002809DB00F01F0201219140BD
:100570004009800000F1E020C0F800117047000041
:10058000F0B40E4B1B680C46C3F30223C3F10705FE
:10059000042D00D90425191D072901D2002300E0EC
:1005A000DB1E012606FA05F1491E214099409E40B6
:1005B000761E16403143F0BC01F0D9B90CED00E0D5
:1005C000064900F0070208684FF6FF03184040EAAA
:1005D0000220034A10430860704700000CED00E061
:1005E0000000FA052DE9F0470E46050065D0DFF85A
:1005F0001481D8F80000F7B200F00F00B04207D223
:1006000088F80070D8F8000000F00F00B04254D114
:1006100028683D4C810712D5400703D5206840F477
:10062000E05020602878000703D5206840F460403F
:1006300020602068A96820F0F00008432060287836
:10064000C0072DD0304968680839012812D0022827
:1006500013D0032811D00968890700292DDA2168F1
:1006600021F0030101432160FFF71CFF814641F2A5
:10067000883A0EE009688903EFE709688901ECE729
:10068000FFF710FFA0EB0901514502D90320BDE897
:10069000F0872068696800F00C00B0EB810FEFD1A3
:1006A000D8F80010404601F00F01B14207D9077099
:1006B000006800F00F00B04201D00120E7E7287881
:1006C000400705D52068E96820F4E0500843206021
:1006D0002878000706D52068296920F4604040EAA0
:1006E000C100206000F018F82168084AC1F3031126
:1006F000515CC8400649086006480068FFF7FAFEEA
:100700000020C4E7003C024008380240CA19000833
:100710000C00002004000020154810B5006810F0FF
:100720000C02144813D04110042A0FD0082A0ED10D
:100730000F4C241F2268236802F03F025B0207D59A
:100740002068C0F38810A0FB010106E0084610BD38
:100750002168C1F38811A1FB00010023FFF732FDDE
:100760002168C1F30141491C4900B0FBF1F010BD03
:10077000083802400024F4002DE9F84F04006ED040
:100780002078DFF83C93C007A9F104054AD009F1AD
:1007900004000168C1F38101012908D00068C0F399
:1007A000810002280AD1D9F80000400206D5286845
:1007B000800337D560680028E1D033E06068B0F589
:1007C000803F10D0B0F5A02F286810D020F48030E2
:1007D0002860286820F4802028606068A8B1FFF7AE
:1007E00061FE06460DE0286840F48030F4E740F4EE
:1007F00080202860F7E700BFFFF754FE801B6428C5
:1008000073D828688003F7D50CE0FFF74BFE064647
:1008100005E000BFFFF746FE801B6428F0D828687B
:100820008003F7D42078DFF89C8280074FF0000A1D
:100830003ED5A348001D016811F00C0F08D00068D8
:10084000C0F3810002280BD1D9F80000400207D480
:100850002868800716D5E068012800D112E02BE156
:10086000E068B8B10120C8F80000FFF71BFE06469B
:1008700005E000BFFFF716FE801B0228C0D82868DD
:100880008007F7D52868216920F0F80040EAC10008
:1008900028600DE0C8F800A0FFF704FE064604E05B
:1008A000FFF700FE801B02281FD828688007F7D4B6
:1008B0002078000722D5824E83486169703671B175
:1008C00001210160FFF7EEFD074604E0FFF7EAFDB6
:1008D000C01B022809D830688007F7D50EE0C0F8A1
:1008E00000A0FFF7DFFD074605E082E0FFF7DAFD35
:1008F000C01B02287DD830688007F7D420784007D5
:1009000068D5DFF8BCB100270BF13C0BDBF8000029
:10091000C0000BD4DBF8001041F08051CBF8001080
:10092000DBF80000012700F080500090674E30682F
:10093000C00510D4306840F480703060FFF7B2FD1D
:10094000009005E0FFF7AEFD0099401A022850D84C
:100950003068C005F6D55A4EA0686C3601280FD015
:100960000528306810D020F001003060306820F099
:1009700004003060A068B8B1FFF794FD00900FE06C
:10098000306840F00100F4E740F004003060F7E721
:10099000FFF788FD0099411A41F28830814266D8FC
:1009A00030688007F4D50EE0FFF77CFD009007E08B
:1009B000FFF778FD0099411A41F28830814256D8FC
:1009C00030688007F4D42FB1DBF8001021F080519B
:1009D000CBF80010A069C8B33949091D0968C1F3F3
:1009E000810102294AD00228504607D0C8F8600089
:1009F00000E03CE0FFF756FD04463BE04746C8F800
:100A00006000FFF74FFD064605E000BFFFF74AFD17
:100A1000801B02282BD828688001F7D4D4E907016D
:100A20000843A16A2A4A490802EB0141626A41EA85
:100A30008211084394F82C1040EA0161C9F80010B3
:100A400001203866FFF72EFD044606E036E000BFC1
:100A5000FFF728FD001B022809D828688001F7D578
:100A60002CE000BFFFF71EFD001B022802D9032067
:100A7000BDE8F88F28688001F4D41FE00128F7D082
:100A8000D9F80000E26900F48001914214D1226A91
:100A900000F03F0191420FD147F6C071626A0140F8
:100AA000914209D1A26A00F44031914204D1E16A35
:100AB00000F07060884201D00120D9E70020D7E71C
:100AC0000438024000004742800E47420070004058
:100AD0000000FFFF10B5401EB0F1807F01D3012060
:100AE00010BD4FF0E02460610F21601700F03FFF60
:100AF0000020A06107202061002010BD70477047D2
:100B000010B590F83C20012A22D0012280F83C2028
:100B1000CA688C6822F4407222434C6822F48062D6
:100B200022430C6822F4006222430C6922F48052B2
:100B300022434C6922F400522243C969002322F463
:100B400080420A4301684A6480F83C30002010BDAE
:100B5000022010BD70B590F83C20012A32D001244B
:100B600080F83C40022280F83D2003685A689D6866
:100B700022F070060A6832435A60134B02689A42A8
:100B800014D0B2F1804F11D0104B9A420ED0104BBE
:100B90009A420BD00F4B9A4208D00F4B9A4205D085
:100BA0000E4B9A4202D00E4B9A4204D1496825F06E
:100BB00080031943916080F83D40002180F83C108B
:100BC000084670BD022070BD0000014000040040D6
:100BD00000080040000C00400004014000400140BB
:100BE0000018004010B5040003D094F83D0010B187
:100BF00007E0012010BD002084F83C00204600F0F2
:100C00000DF8022084F83D00211D206800F02CFD25
:100C1000012084F83D00002010BD000008B50068E8
:100C20000B49884212D10B48016841F00101016073
:100C30000068002200F00100009011461820FFF724
:100C40009FFCBDE808401820FFF78CBC08BD0000E1
:100C5000000001404438024070B5044690F83C0062
:100C6000012817D0012584F83C50022084F83D006B
:100C70002068826822F0770222F47F42826008684E
:100C8000502830D00DDC20284DD005DC98B310283A
:100C90003BD148E0022070BD302844D0402834D1F8
:100CA00039E0602828D0702806D0B0F5805F2CD0BD
:100CB000B0F5005F29D10AE0CB68D1E901212068B5
:100CC00000F043FD2068816841F0770109E0CB68BE
:100CD000D1E90121206800F038FD2068816841F4E5
:100CE0008041816011E0CA684968206800F002FE16
:100CF0005021206807E016E0CA684968206800F0C3
:100D00000AFE6021206800F02AFD84F83D50002092
:100D100084F83C0070BDCA684968206800F0EAFDAC
:100D200040212068EFE7226801461046EBE72DE9F5
:100D3000F0410D46040003D094F83D0018B108E0DE
:100D40000120BDE8F081002084F83C00204600F03E
:100D50003BF8022084F83D002068816844F20702D5
:100D600091438160211D206800F07EFC226890681C
:100D70009169166A2B68AF69034340F203308143DF
:100D800041EA0721A868EF6908434FF6FC41884310
:100D9000E96840EA0720014328692F6A000140EA18
:100DA0000730084369686D6926F0AA0646EA05150A
:100DB000294393602268906120680162012084F8D1
:100DC0003D000020BDE7000010B586B004461421A8
:100DD0006846FFF72FFA1249206888421ED1114851
:100DE0000021026842F002020260006800F0020086
:100DF00005900C481038026842F002020260006858
:100E000000F002000590302000900220CDE90101A1
:100E1000CDE9031069460448FFF762FA06B010BD39
:100E200000040040403802400004024010B504466F
:100E3000006891B1042904D00122002100F078FC5F
:100E4000206801225FF0040100F072FC2068016854
:100E500041F001010160002010BD01220021F3E7F3
:100E6000704770B50446006801694FF00005C9433A
:100E7000890715D4C168C943890711D4E91E0161E6
:100E800001202077206880698007204602D0FFF784
:100E9000E7FF04E000F003F9204600F0A1F9257710
:100EA00020680169C943490717D4C168C943490784
:100EB00013D46FF00401016102202077206880695B
:100EC00010F4407F204602D0FFF7CAFF04E000F094
:100ED000E6F8204600F084F9257720680169C943C7
:100EE000090716D4C168C943090712D46FF0080175
:100EF0000161042020772068C0698007204602D065
:100F0000FFF7AEFF04E000F0CAF8204600F068F9F1
:100F1000257720680169C943C90617D4C168C94348
:100F2000C90613D46FF010010161082020772068F2
:100F3000C06910F4407F204602D0FFF791FF04E023
:100F400000F0ADF8204600F04BF9257720680169E4
:100F5000C943C90708D1C168C943C90704D1891E5B
:100F60000161204600F060F920680169C943090663
:100F700009D4C168C943090605D46FF08001016135
:100F80002046FFF7BBFD20680169C943490609D423
:100F9000C168C943490605D46FF04001016120468C
:100FA00000F043F920680169C94389060BD4C16880
:100FB000C943890607D46FF0200101612046BDE8CE
:100FC0007040FFF79CBD70BD70B586B0044614211B
:100FD0006846FFF72FF918492068884229D1174839
:100FE0000024016841F002010160016801F0020182
:100FF0000591016841F0010101600068022500F0DF
:10100000010005904FF460400090CDE901540126A5
:10101000CDE9034669460A48FFF762F94FF4E060FC
:101020000090CDE90154CDE9034669460548FFF734
:1010300057F906B070BD0000000001403038024092
:10104000000402400000024070B5044690F83C00E5
:1010500001280DD0012584F83C50022084F83D0081
:1010600042B1042A0AD0082A0CD00C2A11D10DE072
:10107000022070BD206800F07BFB0AE0206800F0D1
:10108000A7FB06E0206800F0D9FB02E0206800F032
:1010900009FC84F83D50002084F83C0070BD704786
:1010A00010B5040003D094F83D0010B107E0012012
:1010B00010BD002084F83C00204600F00CF802200F
:1010C00084F83D00211D206800F0CEFA012084F84C
:1010D0003D00002010BD704770B5044690F83C00FC
:1010E0000D4601280DD0012684F83C60022084F8CA
:1010F0003D0042B1042A18D0082A2AD00C2A4DD12A
:1011000039E0022070BD206800F032FB2068816960
:1011100041F0080181612068816921F00401816149
:10112000206881692A69114311E0206800F050FBB2
:101130002068816941F4006181612068816921F43E
:1011400080618161206881692A6941EA02218161A7
:1011500024E0206800F072FB2068C16941F00801BA
:10116000C1612068C16921F00401C1612068C169C1
:101170002A69114311E0206800F094FB2068C169DE
:1011800041F40061C1612068C16921F48061C161DD
:101190002068C1692A6941EA0221C16184F83D6081
:1011A000002084F83C0070BD10B5040003D094F812
:1011B0003D0010B107E0012010BD002084F83C0084
:1011C000204600F00CF8022084F83D00211D206824
:1011D00000F04AFA012084F83D00002010BD70475D
:1011E0007047000010B504460068012200F0A0FA24
:1011F0000B492068884202D00A49884203D1416CD9
:1012000041F4004141642068816801F0070106292A
:1012100003D0016841F001010160002010BD000011
:10122000000001400004014070477047FEE710B520
:10123000012000F013F900F0EDF9BDE8104000F0D6
:101240007DBB704770B586B014216846FEF7F2FF8B
:1012500016480025016841F080010160016801F035
:1012600080010591016841F002010160016801F00F
:1012700002010591016841F00101016000680C4E16
:1012800000F001004FF480540590002221463046C2
:10129000FFF702F90121CDE90041CDE902156946C8
:1012A0003046FFF71DF806B070BD00003038024030
:1012B0000004024010B596B000240F9410941194CD
:1012C000129413941C2168461494FEF7B3FF202156
:1012D00007A8FEF7AFFF3B48394901600121416093
:1012E0006021816041F26701C0E903148021C0E9F7
:1012F0000541FFF777FC08B1FEF7EDFF4FF4805092
:101300000F900FA92F48FFF7A7FC08B1FEF7E3FFE6
:101310002C48FFF749FF08B1FEF7DDFF2948FFF72A
:10132000BFFE08B1FEF7D7FF2020CDE9130413A9B3
:101330002448FFF70FFC08B1FEF7CDFF7020CDE980
:1013400000040294039404940594002269461D4805
:101350000694FFF7C1FE08B1FEF7BDFF04226946FF
:101360001848FFF7B9FE08B1FEF7B5FF0822694635
:101370001448FFF7B1FE08B1FEF7ADFF0C22694635
:1013800010480094FFF760FE08B1FEF7A4FF4FF489
:10139000006007904010CDE908045420CDE90A040C
:1013A0004FF400500C9007A90E940648FFF7A8FBD5
:1013B00008B1FEF790FF0348FFF706FE16B010BD18
:1013C000000001402000002010B58CB024216846A8
:1013D000FEF730FF00241648099414490A94C0E926
:1013E000001444F62061C0E90241046184610320D5
:1013F000CDE900040120CDE902040494CDE90540C3
:10140000079469460A480894FFF791FC08B1FEF773
:1014100062FF099409A906480A94FFF79BFB00287C
:1014200001D0FEF758FF0CB010BD000000040040D2
:1014300060000020FEE77047704770470549044888
:101440000A680068C832904200D308607047000004
:10145000180000201C0000207047000002464FF4D6
:1014600080510148FFF718B800040240B5EEC00AE9
:101470000D49F1EE10FA02D29FED0C0A05E010EED4
:10148000100A884201DD9FED0A0A9FED0A1ADFED7E
:101490000A0A0A4940EE410A0968BCEEE00A10EE69
:1014A000100A4863704700000000C84200000000B6
:1014B0000000C84200002842004083452000002070
:1014C000B5EEC00A0C49F1EE10FA02D29FED0B0AFC
:1014D00005E010EE100A884201DD9FED090ADFEDFC
:1014E000090A094920EE200A0968BCEEC00A10EE7C
:1014F000100A8863704700000000C8420000000026
:101500000000C8420000284220000020B5EEC00ABA
:101510000C49F1EE10FA02D29FED0B0A05E010EE35
:10152000100A884201DD9FED090ADFED090A094929
:1015300020EE200A0968BCEEC00A10EE100AC8634B
:10154000704700000000C842000000000000C842D0
:10155000000028422000002002480168491C016068
:10156000FEF7A6BF1800002030B593B030216846C2
:10157000FEF760FE14210CA8FEF75CFE194800255A
:10158000016841F080510160006800F080501190C6
:101590001548016841F4804101600068022400F4AC
:1015A0008040119001200390102004900094069434
:1015B0000820CDE90750A820CDE9090404200B90AC
:1015C0006846FFF7D9F80CA90F2081E831004FF4E5
:1015D000A0500F90E002109005210CA8FFF702F830
:1015E00013B030BD4038024000700040054801682B
:1015F00041F47001016003494FF0006080390860D8
:101600007047000088ED00E00148FFF72ABC0000A9
:101610002000002010B500211048FFF7E3FD042151
:101620000E48FFF7DFFD08210C48FFF7DBFD0B48F4
:10163000002102685163026891630068C163B2EEE1
:10164000040AFFF713FF9FED060AFFF739FFBDE815
:1016500010409FED040AFFF759BF00002000002052
:10166000000048420000B442F0B50268254C264D07
:10167000264E274F274B4FF0804CA04209D06045A3
:1016800007D0A84205D0B04203D0B84201D098425A
:1016900004D122F0700E4A6842EA0E02A0421BD02A
:1016A000604519D0A84217D0B04215D0B84213D027
:1016B000984211D0184DA8420ED0184DA8420BD018
:1016C000174DA84208D0174DA84205D0164DA84284
:1016D00002D0164DA84203D122F44075CA682A43AD
:1016E0004D6922F080022A4302608A68C2620A6859
:1016F0008262A04201D0984201D1096901630121AF
:101700004161F0BD000001400004004000080040BD
:10171000000C004000040140004001400044014032
:101720000048014000180040001C0040002000401C
:1017300010B501F01F030121046A99408C43046233
:10174000016A9A401143016210BD10B5846842EAF3
:10175000032224F47F440A432243826010BD82683E
:1017600022F070020A4342F00701816070470000D6
:10177000F0B5026A22F001020262036A42688469DB
:10178000124E24F073050C682C4323F002058B687D
:101790002B430D4DA84201D0B04205D123F00807DC
:1017A000CB683B4323F00403A84201D0B04205D1EB
:1017B0004D6922F4407215438A692A43426084616C
:1017C000496841630362F0BD00000140000401402C
:1017D000F0B5026A22F010020262026A436884696C
:1017E0000D6824F4E64444EA05248D6822F02002C2
:1017F00042EA05120F4D104EA84201D0B04206D168
:10180000CF6822F0800242EA071222F04002A8428A
:1018100001D0B04207D14D6923F4406343EA850308
:101820008D6943EA8503436084614968816302628C
:10183000F0BD00000000014000040140F0B5026A64
:1018400022F480720262026A4368C46922F4007260
:1018500024F073050C68124E2C438D6842EA052271
:101860000E4DA84201D0B04206D1CF6822F40062EA
:1018700042EA072222F48062A84201D0B04207D196
:101880004D6923F4405343EA05138D6943EA051378
:101890004360C4614968C1630262F0BD0000014059
:1018A0000004014030B5026A22F480520262046AE8
:1018B0004268C3690D6823F4E64343EA05238D6853
:1018C00024F4005444EA0534084DA84202D0084DDF
:1018D000A84204D14D6922F4804242EA8512426056
:1018E000C36149680164046230BD0000000001402A
:1018F0000004014010B5036A046A24F00104046284
:10190000846924F0F00444EA021423F00A020A4332
:101910008461026210BD10B5036A23F010030362F4
:101920008369046A23F4704343EA023224F0A0037B
:1019300043EA01118261016210BD000010B504216B
:101940000748FFF773FA064942F2107009684862C7
:1019500005489FED040A002180ED010A016010BDD9
:10196000600000200000000010000020FEE70907D2
:10197000090E002804DB00F1E02080F80014704715
:1019800000F00F0000F1E02080F8141D704702E025
:1019900008C8121F08C1002AFAD1704770470020FA
:1019A00001E001C1121F002AFBD17047FEF788FD3C
:1019B000FFF7DAFDFFF746FCFFF77CFCFFF704FDBD
:1019C000FEF774FCFEF77BFCFCE700000000000063
:1019D000000001020304060708090000FC190008C2
:1019E00000000020200000008E1900081C1A0008CA
:1019F00020000020800400009E1900080100000063
:101A000010000000000000000024F40000000000AE
:0C1A1000000000000000000000000000CA
:040000050800018965
:00000001FF
